{
  "contractName": "Color",
  "abi": [
    {
      "inputs": [],
      "stateMutability": "nonpayable",
      "type": "constructor"
    },
    {
      "anonymous": false,
      "inputs": [
        {
          "indexed": true,
          "internalType": "address",
          "name": "owner",
          "type": "address"
        },
        {
          "indexed": true,
          "internalType": "address",
          "name": "approved",
          "type": "address"
        },
        {
          "indexed": true,
          "internalType": "uint256",
          "name": "tokenId",
          "type": "uint256"
        }
      ],
      "name": "Approval",
      "type": "event"
    },
    {
      "anonymous": false,
      "inputs": [
        {
          "indexed": true,
          "internalType": "address",
          "name": "owner",
          "type": "address"
        },
        {
          "indexed": true,
          "internalType": "address",
          "name": "operator",
          "type": "address"
        },
        {
          "indexed": false,
          "internalType": "bool",
          "name": "approved",
          "type": "bool"
        }
      ],
      "name": "ApprovalForAll",
      "type": "event"
    },
    {
      "anonymous": false,
      "inputs": [
        {
          "indexed": true,
          "internalType": "address",
          "name": "from",
          "type": "address"
        },
        {
          "indexed": true,
          "internalType": "address",
          "name": "to",
          "type": "address"
        },
        {
          "indexed": true,
          "internalType": "uint256",
          "name": "tokenId",
          "type": "uint256"
        }
      ],
      "name": "Transfer",
      "type": "event"
    },
    {
      "inputs": [
        {
          "internalType": "address",
          "name": "to",
          "type": "address"
        },
        {
          "internalType": "uint256",
          "name": "tokenId",
          "type": "uint256"
        }
      ],
      "name": "approve",
      "outputs": [],
      "stateMutability": "nonpayable",
      "type": "function"
    },
    {
      "inputs": [
        {
          "internalType": "address",
          "name": "owner",
          "type": "address"
        }
      ],
      "name": "balanceOf",
      "outputs": [
        {
          "internalType": "uint256",
          "name": "",
          "type": "uint256"
        }
      ],
      "stateMutability": "view",
      "type": "function"
    },
    {
      "inputs": [
        {
          "internalType": "uint256",
          "name": "",
          "type": "uint256"
        }
      ],
      "name": "colors",
      "outputs": [
        {
          "internalType": "string",
          "name": "",
          "type": "string"
        }
      ],
      "stateMutability": "view",
      "type": "function"
    },
    {
      "inputs": [
        {
          "internalType": "uint256",
          "name": "tokenId",
          "type": "uint256"
        }
      ],
      "name": "getApproved",
      "outputs": [
        {
          "internalType": "address",
          "name": "",
          "type": "address"
        }
      ],
      "stateMutability": "view",
      "type": "function"
    },
    {
      "inputs": [
        {
          "internalType": "address",
          "name": "owner",
          "type": "address"
        },
        {
          "internalType": "address",
          "name": "operator",
          "type": "address"
        }
      ],
      "name": "isApprovedForAll",
      "outputs": [
        {
          "internalType": "bool",
          "name": "",
          "type": "bool"
        }
      ],
      "stateMutability": "view",
      "type": "function"
    },
    {
      "inputs": [],
      "name": "name",
      "outputs": [
        {
          "internalType": "string",
          "name": "",
          "type": "string"
        }
      ],
      "stateMutability": "view",
      "type": "function"
    },
    {
      "inputs": [
        {
          "internalType": "uint256",
          "name": "tokenId",
          "type": "uint256"
        }
      ],
      "name": "ownerOf",
      "outputs": [
        {
          "internalType": "address",
          "name": "",
          "type": "address"
        }
      ],
      "stateMutability": "view",
      "type": "function"
    },
    {
      "inputs": [
        {
          "internalType": "address",
          "name": "from",
          "type": "address"
        },
        {
          "internalType": "address",
          "name": "to",
          "type": "address"
        },
        {
          "internalType": "uint256",
          "name": "tokenId",
          "type": "uint256"
        }
      ],
      "name": "safeTransferFrom",
      "outputs": [],
      "stateMutability": "nonpayable",
      "type": "function"
    },
    {
      "inputs": [
        {
          "internalType": "address",
          "name": "from",
          "type": "address"
        },
        {
          "internalType": "address",
          "name": "to",
          "type": "address"
        },
        {
          "internalType": "uint256",
          "name": "tokenId",
          "type": "uint256"
        },
        {
          "internalType": "bytes",
          "name": "_data",
          "type": "bytes"
        }
      ],
      "name": "safeTransferFrom",
      "outputs": [],
      "stateMutability": "nonpayable",
      "type": "function"
    },
    {
      "inputs": [
        {
          "internalType": "address",
          "name": "operator",
          "type": "address"
        },
        {
          "internalType": "bool",
          "name": "approved",
          "type": "bool"
        }
      ],
      "name": "setApprovalForAll",
      "outputs": [],
      "stateMutability": "nonpayable",
      "type": "function"
    },
    {
      "inputs": [
        {
          "internalType": "bytes4",
          "name": "interfaceId",
          "type": "bytes4"
        }
      ],
      "name": "supportsInterface",
      "outputs": [
        {
          "internalType": "bool",
          "name": "",
          "type": "bool"
        }
      ],
      "stateMutability": "view",
      "type": "function"
    },
    {
      "inputs": [],
      "name": "symbol",
      "outputs": [
        {
          "internalType": "string",
          "name": "",
          "type": "string"
        }
      ],
      "stateMutability": "view",
      "type": "function"
    },
    {
      "inputs": [
        {
          "internalType": "uint256",
          "name": "tokenId",
          "type": "uint256"
        }
      ],
      "name": "tokenURI",
      "outputs": [
        {
          "internalType": "string",
          "name": "",
          "type": "string"
        }
      ],
      "stateMutability": "view",
      "type": "function"
    },
    {
      "inputs": [
        {
          "internalType": "address",
          "name": "from",
          "type": "address"
        },
        {
          "internalType": "address",
          "name": "to",
          "type": "address"
        },
        {
          "internalType": "uint256",
          "name": "tokenId",
          "type": "uint256"
        }
      ],
      "name": "transferFrom",
      "outputs": [],
      "stateMutability": "nonpayable",
      "type": "function"
    },
    {
      "inputs": [
        {
          "internalType": "string",
          "name": "_color",
          "type": "string"
        }
      ],
      "name": "mint",
      "outputs": [],
      "stateMutability": "nonpayable",
      "type": "function"
    },
    {
      "inputs": [],
      "name": "totalSupply",
      "outputs": [
        {
          "internalType": "uint256",
          "name": "",
          "type": "uint256"
        }
      ],
      "stateMutability": "view",
      "type": "function"
    }
  ],
  "bytecode": "0x60806040523480156200001157600080fd5b506040518060400160405280600581526020017f436f6c6f720000000000000000000000000000000000000000000000000000008152506040518060400160405280600581526020017f434f4c4f52000000000000000000000000000000000000000000000000000000815250816000908051906020019062000096929190620000b8565b508060019080519060200190620000af929190620000b8565b505050620001cd565b828054620000c69062000168565b90600052602060002090601f016020900481019282620000ea576000855562000136565b82601f106200010557805160ff191683800117855562000136565b8280016001018555821562000136579182015b828111156200013557825182559160200191906001019062000118565b5b50905062000145919062000149565b5090565b5b80821115620001645760008160009055506001016200014a565b5090565b600060028204905060018216806200018157607f821691505b602082108114156200019857620001976200019e565b5b50919050565b7f4e487b7100000000000000000000000000000000000000000000000000000000600052602260045260246000fd5b6129aa80620001dd6000396000f3fe608060405234801561001057600080fd5b50600436106101005760003560e01c806370a0823111610097578063bd11f69d11610066578063bd11f69d146102ab578063c87b56dd146102db578063d85d3d271461030b578063e985e9c51461032757610100565b806370a082311461022557806395d89b4114610255578063a22cb46514610273578063b88d4fde1461028f57610100565b806318160ddd116100d357806318160ddd1461019f57806323b872dd146101bd57806342842e0e146101d95780636352211e146101f557610100565b806301ffc9a71461010557806306fdde0314610135578063081812fc14610153578063095ea7b314610183575b600080fd5b61011f600480360381019061011a9190611bf2565b610357565b60405161012c9190612342565b60405180910390f35b61013d610439565b60405161014a919061235d565b60405180910390f35b61016d60048036038101906101689190611c85565b6104cb565b60405161017a91906122db565b60405180910390f35b61019d60048036038101906101989190611bb6565b610550565b005b6101a7610668565b6040516101b4919061253f565b60405180910390f35b6101d760048036038101906101d29190611ab0565b610675565b005b6101f360048036038101906101ee9190611ab0565b6106d5565b005b61020f600480360381019061020a9190611c85565b6106f5565b60405161021c91906122db565b60405180910390f35b61023f600480360381019061023a9190611a4b565b6107a7565b60405161024c919061253f565b60405180910390f35b61025d61085f565b60405161026a919061235d565b60405180910390f35b61028d60048036038101906102889190611b7a565b6108f1565b005b6102a960048036038101906102a49190611aff565b610a72565b005b6102c560048036038101906102c09190611c85565b610ad4565b6040516102d2919061235d565b60405180910390f35b6102f560048036038101906102f09190611c85565b610b80565b604051610302919061235d565b60405180910390f35b61032560048036038101906103209190611c44565b610c27565b005b610341600480360381019061033c9190611a74565b610cf4565b60405161034e9190612342565b60405180910390f35b60007f80ac58cd000000000000000000000000000000000000000000000000000000007bffffffffffffffffffffffffffffffffffffffffffffffffffffffff1916827bffffffffffffffffffffffffffffffffffffffffffffffffffffffff1916148061042257507f5b5e139f000000000000000000000000000000000000000000000000000000007bffffffffffffffffffffffffffffffffffffffffffffffffffffffff1916827bffffffffffffffffffffffffffffffffffffffffffffffffffffffff1916145b80610432575061043182610d88565b5b9050919050565b6060600080546104489061279f565b80601f01602080910402602001604051908101604052809291908181526020018280546104749061279f565b80156104c15780601f10610496576101008083540402835291602001916104c1565b820191906000526020600020905b8154815290600101906020018083116104a457829003601f168201915b5050505050905090565b60006104d682610df2565b610515576040517f08c379a000000000000000000000000000000000000000000000000000000000815260040161050c9061249f565b60405180910390fd5b6004600083815260200190815260200160002060009054906101000a900473ffffffffffffffffffffffffffffffffffffffff169050919050565b600061055b826106f5565b90508073ffffffffffffffffffffffffffffffffffffffff168373ffffffffffffffffffffffffffffffffffffffff1614156105cc576040517f08c379a00000000000000000000000000000000000000000000000000000000081526004016105c3906124ff565b60405180910390fd5b8073ffffffffffffffffffffffffffffffffffffffff166105eb610e5e565b73ffffffffffffffffffffffffffffffffffffffff16148061061a575061061981610614610e5e565b610cf4565b5b610659576040517f08c379a00000000000000000000000000000000000000000000000000000000081526004016106509061241f565b60405180910390fd5b6106638383610e66565b505050565b6000600680549050905090565b610686610680610e5e565b82610f1f565b6106c5576040517f08c379a00000000000000000000000000000000000000000000000000000000081526004016106bc9061251f565b60405180910390fd5b6106d0838383610ffd565b505050565b6106f083838360405180602001604052806000815250610a72565b505050565b6000806002600084815260200190815260200160002060009054906101000a900473ffffffffffffffffffffffffffffffffffffffff169050600073ffffffffffffffffffffffffffffffffffffffff168173ffffffffffffffffffffffffffffffffffffffff16141561079e576040517f08c379a00000000000000000000000000000000000000000000000000000000081526004016107959061245f565b60405180910390fd5b80915050919050565b60008073ffffffffffffffffffffffffffffffffffffffff168273ffffffffffffffffffffffffffffffffffffffff161415610818576040517f08c379a000000000000000000000000000000000000000000000000000000000815260040161080f9061243f565b60405180910390fd5b600360008373ffffffffffffffffffffffffffffffffffffffff1673ffffffffffffffffffffffffffffffffffffffff168152602001908152602001600020549050919050565b60606001805461086e9061279f565b80601f016020809104026020016040519081016040528092919081815260200182805461089a9061279f565b80156108e75780601f106108bc576101008083540402835291602001916108e7565b820191906000526020600020905b8154815290600101906020018083116108ca57829003601f168201915b5050505050905090565b6108f9610e5e565b73ffffffffffffffffffffffffffffffffffffffff168273ffffffffffffffffffffffffffffffffffffffff161415610967576040517f08c379a000000000000000000000000000000000000000000000000000000000815260040161095e906123df565b60405180910390fd5b8060056000610974610e5e565b73ffffffffffffffffffffffffffffffffffffffff1673ffffffffffffffffffffffffffffffffffffffff16815260200190815260200160002060008473ffffffffffffffffffffffffffffffffffffffff1673ffffffffffffffffffffffffffffffffffffffff16815260200190815260200160002060006101000a81548160ff0219169083151502179055508173ffffffffffffffffffffffffffffffffffffffff16610a21610e5e565b73ffffffffffffffffffffffffffffffffffffffff167f17307eab39ab6107e8899845ad3d59bd9653f200f220920489ca2b5937696c3183604051610a669190612342565b60405180910390a35050565b610a83610a7d610e5e565b83610f1f565b610ac2576040517f08c379a0000000000000000000000000000000000000000000000000000000008152600401610ab99061251f565b60405180910390fd5b610ace84848484611259565b50505050565b60068181548110610ae457600080fd5b906000526020600020016000915090508054610aff9061279f565b80601f0160208091040260200160405190810160405280929190818152602001828054610b2b9061279f565b8015610b785780601f10610b4d57610100808354040283529160200191610b78565b820191906000526020600020905b815481529060010190602001808311610b5b57829003601f168201915b505050505081565b6060610b8b82610df2565b610bca576040517f08c379a0000000000000000000000000000000000000000000000000000000008152600401610bc1906124df565b60405180910390fd5b6000610bd46112b5565b90506000815111610bf45760405180602001604052806000815250610c1f565b80610bfe846112cc565b604051602001610c0f9291906122b7565b6040516020818303038152906040525b915050919050565b600781604051610c3791906122a0565b908152602001604051809103902060009054906101000a900460ff1615610c5d57600080fd5b600681908060018154018082558091505060019003906000526020600020016000909190919091509080519060200190610c9892919061186f565b5060006001600680549050610cad91906126b5565b9050610cb93382611479565b6001600783604051610ccb91906122a0565b908152602001604051809103902060006101000a81548160ff0219169083151502179055505050565b6000600560008473ffffffffffffffffffffffffffffffffffffffff1673ffffffffffffffffffffffffffffffffffffffff16815260200190815260200160002060008373ffffffffffffffffffffffffffffffffffffffff1673ffffffffffffffffffffffffffffffffffffffff16815260200190815260200160002060009054906101000a900460ff16905092915050565b60007f01ffc9a7000000000000000000000000000000000000000000000000000000007bffffffffffffffffffffffffffffffffffffffffffffffffffffffff1916827bffffffffffffffffffffffffffffffffffffffffffffffffffffffff1916149050919050565b60008073ffffffffffffffffffffffffffffffffffffffff166002600084815260200190815260200160002060009054906101000a900473ffffffffffffffffffffffffffffffffffffffff1673ffffffffffffffffffffffffffffffffffffffff1614159050919050565b600033905090565b816004600083815260200190815260200160002060006101000a81548173ffffffffffffffffffffffffffffffffffffffff021916908373ffffffffffffffffffffffffffffffffffffffff160217905550808273ffffffffffffffffffffffffffffffffffffffff16610ed9836106f5565b73ffffffffffffffffffffffffffffffffffffffff167f8c5be1e5ebec7d5bd14f71427d1e84f3dd0314c0f7b2291e5b200ac8c7c3b92560405160405180910390a45050565b6000610f2a82610df2565b610f69576040517f08c379a0000000000000000000000000000000000000000000000000000000008152600401610f60906123ff565b60405180910390fd5b6000610f74836106f5565b90508073ffffffffffffffffffffffffffffffffffffffff168473ffffffffffffffffffffffffffffffffffffffff161480610fe357508373ffffffffffffffffffffffffffffffffffffffff16610fcb846104cb565b73ffffffffffffffffffffffffffffffffffffffff16145b80610ff45750610ff38185610cf4565b5b91505092915050565b8273ffffffffffffffffffffffffffffffffffffffff1661101d826106f5565b73ffffffffffffffffffffffffffffffffffffffff1614611073576040517f08c379a000000000000000000000000000000000000000000000000000000000815260040161106a906124bf565b60405180910390fd5b600073ffffffffffffffffffffffffffffffffffffffff168273ffffffffffffffffffffffffffffffffffffffff1614156110e3576040517f08c379a00000000000000000000000000000000000000000000000000000000081526004016110da906123bf565b60405180910390fd5b6110ee838383611497565b6110f9600082610e66565b6001600360008573ffffffffffffffffffffffffffffffffffffffff1673ffffffffffffffffffffffffffffffffffffffff168152602001908152602001600020600082825461114991906126b5565b925050819055506001600360008473ffffffffffffffffffffffffffffffffffffffff1673ffffffffffffffffffffffffffffffffffffffff16815260200190815260200160002060008282546111a0919061262e565b92505081905550816002600083815260200190815260200160002060006101000a81548173ffffffffffffffffffffffffffffffffffffffff021916908373ffffffffffffffffffffffffffffffffffffffff160217905550808273ffffffffffffffffffffffffffffffffffffffff168473ffffffffffffffffffffffffffffffffffffffff167fddf252ad1be2c89b69c2b068fc378daa952ba7f163c4a11628f55a4df523b3ef60405160405180910390a4505050565b611264848484610ffd565b6112708484848461149c565b6112af576040517f08c379a00000000000000000000000000000000000000000000000000000000081526004016112a69061237f565b60405180910390fd5b50505050565b606060405180602001604052806000815250905090565b60606000821415611314576040518060400160405280600181526020017f30000000000000000000000000000000000000000000000000000000000000008152509050611474565b600082905060005b6000821461134657808061132f906127d1565b915050600a8261133f9190612684565b915061131c565b60008167ffffffffffffffff811115611388577f4e487b7100000000000000000000000000000000000000000000000000000000600052604160045260246000fd5b6040519080825280601f01601f1916602001820160405280156113ba5781602001600182028036833780820191505090505b5090505b6000851461146d576001826113d391906126b5565b9150600a856113e2919061281a565b60306113ee919061262e565b60f81b81838151811061142a577f4e487b7100000000000000000000000000000000000000000000000000000000600052603260045260246000fd5b60200101907effffffffffffffffffffffffffffffffffffffffffffffffffffffffffffff1916908160001a905350600a856114669190612684565b94506113be565b8093505050505b919050565b611493828260405180602001604052806000815250611633565b5050565b505050565b60006114bd8473ffffffffffffffffffffffffffffffffffffffff1661168e565b15611626578373ffffffffffffffffffffffffffffffffffffffff1663150b7a026114e6610e5e565b8786866040518563ffffffff1660e01b815260040161150894939291906122f6565b602060405180830381600087803b15801561152257600080fd5b505af192505050801561155357506040513d601f19601f820116820180604052508101906115509190611c1b565b60015b6115d6573d8060008114611583576040519150601f19603f3d011682016040523d82523d6000602084013e611588565b606091505b506000815114156115ce576040517f08c379a00000000000000000000000000000000000000000000000000000000081526004016115c59061237f565b60405180910390fd5b805181602001fd5b63150b7a0260e01b7bffffffffffffffffffffffffffffffffffffffffffffffffffffffff1916817bffffffffffffffffffffffffffffffffffffffffffffffffffffffff19161491505061162b565b600190505b949350505050565b61163d83836116a1565b61164a600084848461149c565b611689576040517f08c379a00000000000000000000000000000000000000000000000000000000081526004016116809061237f565b60405180910390fd5b505050565b600080823b905060008111915050919050565b600073ffffffffffffffffffffffffffffffffffffffff168273ffffffffffffffffffffffffffffffffffffffff161415611711576040517f08c379a00000000000000000000000000000000000000000000000000000000081526004016117089061247f565b60405180910390fd5b61171a81610df2565b1561175a576040517f08c379a00000000000000000000000000000000000000000000000000000000081526004016117519061239f565b60405180910390fd5b61176660008383611497565b6001600360008473ffffffffffffffffffffffffffffffffffffffff1673ffffffffffffffffffffffffffffffffffffffff16815260200190815260200160002060008282546117b6919061262e565b92505081905550816002600083815260200190815260200160002060006101000a81548173ffffffffffffffffffffffffffffffffffffffff021916908373ffffffffffffffffffffffffffffffffffffffff160217905550808273ffffffffffffffffffffffffffffffffffffffff16600073ffffffffffffffffffffffffffffffffffffffff167fddf252ad1be2c89b69c2b068fc378daa952ba7f163c4a11628f55a4df523b3ef60405160405180910390a45050565b82805461187b9061279f565b90600052602060002090601f01602090048101928261189d57600085556118e4565b82601f106118b657805160ff19168380011785556118e4565b828001600101855582156118e4579182015b828111156118e35782518255916020019190600101906118c8565b5b5090506118f191906118f5565b5090565b5b8082111561190e5760008160009055506001016118f6565b5090565b60006119256119208461258b565b61255a565b90508281526020810184848401111561193d57600080fd5b61194884828561275d565b509392505050565b600061196361195e846125bb565b61255a565b90508281526020810184848401111561197b57600080fd5b61198684828561275d565b509392505050565b60008135905061199d81612918565b92915050565b6000813590506119b28161292f565b92915050565b6000813590506119c781612946565b92915050565b6000815190506119dc81612946565b92915050565b600082601f8301126119f357600080fd5b8135611a03848260208601611912565b91505092915050565b600082601f830112611a1d57600080fd5b8135611a2d848260208601611950565b91505092915050565b600081359050611a458161295d565b92915050565b600060208284031215611a5d57600080fd5b6000611a6b8482850161198e565b91505092915050565b60008060408385031215611a8757600080fd5b6000611a958582860161198e565b9250506020611aa68582860161198e565b9150509250929050565b600080600060608486031215611ac557600080fd5b6000611ad38682870161198e565b9350506020611ae48682870161198e565b9250506040611af586828701611a36565b9150509250925092565b60008060008060808587031215611b1557600080fd5b6000611b238782880161198e565b9450506020611b348782880161198e565b9350506040611b4587828801611a36565b925050606085013567ffffffffffffffff811115611b6257600080fd5b611b6e878288016119e2565b91505092959194509250565b60008060408385031215611b8d57600080fd5b6000611b9b8582860161198e565b9250506020611bac858286016119a3565b9150509250929050565b60008060408385031215611bc957600080fd5b6000611bd78582860161198e565b9250506020611be885828601611a36565b9150509250929050565b600060208284031215611c0457600080fd5b6000611c12848285016119b8565b91505092915050565b600060208284031215611c2d57600080fd5b6000611c3b848285016119cd565b91505092915050565b600060208284031215611c5657600080fd5b600082013567ffffffffffffffff811115611c7057600080fd5b611c7c84828501611a0c565b91505092915050565b600060208284031215611c9757600080fd5b6000611ca584828501611a36565b91505092915050565b611cb7816126e9565b82525050565b611cc6816126fb565b82525050565b6000611cd7826125eb565b611ce18185612601565b9350611cf181856020860161276c565b611cfa81612907565b840191505092915050565b6000611d10826125f6565b611d1a8185612612565b9350611d2a81856020860161276c565b611d3381612907565b840191505092915050565b6000611d49826125f6565b611d538185612623565b9350611d6381856020860161276c565b80840191505092915050565b6000611d7c603283612612565b91507f4552433732313a207472616e7366657220746f206e6f6e20455243373231526560008301527f63656976657220696d706c656d656e74657200000000000000000000000000006020830152604082019050919050565b6000611de2601c83612612565b91507f4552433732313a20746f6b656e20616c7265616479206d696e746564000000006000830152602082019050919050565b6000611e22602483612612565b91507f4552433732313a207472616e7366657220746f20746865207a65726f2061646460008301527f72657373000000000000000000000000000000000000000000000000000000006020830152604082019050919050565b6000611e88601983612612565b91507f4552433732313a20617070726f766520746f2063616c6c6572000000000000006000830152602082019050919050565b6000611ec8602c83612612565b91507f4552433732313a206f70657261746f7220717565727920666f72206e6f6e657860008301527f697374656e7420746f6b656e00000000000000000000000000000000000000006020830152604082019050919050565b6000611f2e603883612612565b91507f4552433732313a20617070726f76652063616c6c6572206973206e6f74206f7760008301527f6e6572206e6f7220617070726f76656420666f7220616c6c00000000000000006020830152604082019050919050565b6000611f94602a83612612565b91507f4552433732313a2062616c616e636520717565727920666f7220746865207a6560008301527f726f2061646472657373000000000000000000000000000000000000000000006020830152604082019050919050565b6000611ffa602983612612565b91507f4552433732313a206f776e657220717565727920666f72206e6f6e657869737460008301527f656e7420746f6b656e00000000000000000000000000000000000000000000006020830152604082019050919050565b6000612060602083612612565b91507f4552433732313a206d696e7420746f20746865207a65726f20616464726573736000830152602082019050919050565b60006120a0602c83612612565b91507f4552433732313a20617070726f76656420717565727920666f72206e6f6e657860008301527f697374656e7420746f6b656e00000000000000000000000000000000000000006020830152604082019050919050565b6000612106602983612612565b91507f4552433732313a207472616e73666572206f6620746f6b656e2074686174206960008301527f73206e6f74206f776e00000000000000000000000000000000000000000000006020830152604082019050919050565b600061216c602f83612612565b91507f4552433732314d657461646174613a2055524920717565727920666f72206e6f60008301527f6e6578697374656e7420746f6b656e00000000000000000000000000000000006020830152604082019050919050565b60006121d2602183612612565b91507f4552433732313a20617070726f76616c20746f2063757272656e74206f776e6560008301527f72000000000000000000000000000000000000000000000000000000000000006020830152604082019050919050565b6000612238603183612612565b91507f4552433732313a207472616e736665722063616c6c6572206973206e6f74206f60008301527f776e6572206e6f7220617070726f7665640000000000000000000000000000006020830152604082019050919050565b61229a81612753565b82525050565b60006122ac8284611d3e565b915081905092915050565b60006122c38285611d3e565b91506122cf8284611d3e565b91508190509392505050565b60006020820190506122f06000830184611cae565b92915050565b600060808201905061230b6000830187611cae565b6123186020830186611cae565b6123256040830185612291565b81810360608301526123378184611ccc565b905095945050505050565b60006020820190506123576000830184611cbd565b92915050565b600060208201905081810360008301526123778184611d05565b905092915050565b6000602082019050818103600083015261239881611d6f565b9050919050565b600060208201905081810360008301526123b881611dd5565b9050919050565b600060208201905081810360008301526123d881611e15565b9050919050565b600060208201905081810360008301526123f881611e7b565b9050919050565b6000602082019050818103600083015261241881611ebb565b9050919050565b6000602082019050818103600083015261243881611f21565b9050919050565b6000602082019050818103600083015261245881611f87565b9050919050565b6000602082019050818103600083015261247881611fed565b9050919050565b6000602082019050818103600083015261249881612053565b9050919050565b600060208201905081810360008301526124b881612093565b9050919050565b600060208201905081810360008301526124d8816120f9565b9050919050565b600060208201905081810360008301526124f88161215f565b9050919050565b60006020820190508181036000830152612518816121c5565b9050919050565b600060208201905081810360008301526125388161222b565b9050919050565b60006020820190506125546000830184612291565b92915050565b6000604051905081810181811067ffffffffffffffff82111715612581576125806128d8565b5b8060405250919050565b600067ffffffffffffffff8211156125a6576125a56128d8565b5b601f19601f8301169050602081019050919050565b600067ffffffffffffffff8211156125d6576125d56128d8565b5b601f19601f8301169050602081019050919050565b600081519050919050565b600081519050919050565b600082825260208201905092915050565b600082825260208201905092915050565b600081905092915050565b600061263982612753565b915061264483612753565b9250827fffffffffffffffffffffffffffffffffffffffffffffffffffffffffffffffff038211156126795761267861284b565b5b828201905092915050565b600061268f82612753565b915061269a83612753565b9250826126aa576126a961287a565b5b828204905092915050565b60006126c082612753565b91506126cb83612753565b9250828210156126de576126dd61284b565b5b828203905092915050565b60006126f482612733565b9050919050565b60008115159050919050565b60007fffffffff0000000000000000000000000000000000000000000000000000000082169050919050565b600073ffffffffffffffffffffffffffffffffffffffff82169050919050565b6000819050919050565b82818337600083830152505050565b60005b8381101561278a57808201518184015260208101905061276f565b83811115612799576000848401525b50505050565b600060028204905060018216806127b757607f821691505b602082108114156127cb576127ca6128a9565b5b50919050565b60006127dc82612753565b91507fffffffffffffffffffffffffffffffffffffffffffffffffffffffffffffffff82141561280f5761280e61284b565b5b600182019050919050565b600061282582612753565b915061283083612753565b9250826128405761283f61287a565b5b828206905092915050565b7f4e487b7100000000000000000000000000000000000000000000000000000000600052601160045260246000fd5b7f4e487b7100000000000000000000000000000000000000000000000000000000600052601260045260246000fd5b7f4e487b7100000000000000000000000000000000000000000000000000000000600052602260045260246000fd5b7f4e487b7100000000000000000000000000000000000000000000000000000000600052604160045260246000fd5b6000601f19601f8301169050919050565b612921816126e9565b811461292c57600080fd5b50565b612938816126fb565b811461294357600080fd5b50565b61294f81612707565b811461295a57600080fd5b50565b61296681612753565b811461297157600080fd5b5056fea264697066735822122025ee4d54316947c688e043d98a67eb39d60fafdac93a9b79543a1054306a3f1a64736f6c63430008000033",
  "immutableReferences": {},
  "source": "// SPDX-License-Identifier: MIT\r\npragma solidity ^0.8.0;\r\n\r\nimport \"@openzeppelin/contracts/token/ERC721/ERC721.sol\";\r\n\r\ncontract Color is ERC721 {\r\n    string[] public colors;\r\n    mapping(string => bool) _colorExists;\r\n\r\n\r\n    constructor() ERC721(\"Color\", \"COLOR\")  {\r\n    }\r\n\r\n    function mint (string memory _color) public {\r\n        require(!_colorExists[_color]);\r\n        colors.push(_color);\r\n        uint _id = colors.length -1;\r\n        _safeMint(msg.sender, _id);\r\n        _colorExists[_color] = true;\r\n\r\n    }\r\n\r\n    function totalSupply() public view returns(uint){\r\n        return colors.length;\r\n    }\r\n}",
  "sourcePath": "C:/dev/blockchain/nft/src/contracts/Color.sol",
  "compiler": {
    "name": "solc",
    "version": "0.8.0+commit.c7dfd78e.Emscripten.clang"
  },
  "schemaVersion": "3.4.0",
  "updatedAt": "2021-05-05T12:23:09.870Z",
  "devdoc": {
    "kind": "dev",
    "methods": {
      "approve(address,uint256)": {
        "details": "See {IERC721-approve}."
      },
      "balanceOf(address)": {
        "details": "See {IERC721-balanceOf}."
      },
      "getApproved(uint256)": {
        "details": "See {IERC721-getApproved}."
      },
      "isApprovedForAll(address,address)": {
        "details": "See {IERC721-isApprovedForAll}."
      },
      "name()": {
        "details": "See {IERC721Metadata-name}."
      },
      "ownerOf(uint256)": {
        "details": "See {IERC721-ownerOf}."
      },
      "safeTransferFrom(address,address,uint256)": {
        "details": "See {IERC721-safeTransferFrom}."
      },
      "safeTransferFrom(address,address,uint256,bytes)": {
        "details": "See {IERC721-safeTransferFrom}."
      },
      "setApprovalForAll(address,bool)": {
        "details": "See {IERC721-setApprovalForAll}."
      },
      "supportsInterface(bytes4)": {
        "details": "See {IERC165-supportsInterface}."
      },
      "symbol()": {
        "details": "See {IERC721Metadata-symbol}."
      },
      "tokenURI(uint256)": {
        "details": "See {IERC721Metadata-tokenURI}."
      },
      "transferFrom(address,address,uint256)": {
        "details": "See {IERC721-transferFrom}."
      }
    },
    "version": 1
  },
  "userdoc": {
    "kind": "user",
    "methods": {},
    "version": 1
  }
}